:1000000010E0A0E6B0E0E8E3F8E103C0C89531965F
:100010000D92A037B107D1F7CF93DF93CDB7DEB7FD
:100020008AE290E02AE230E0F90120812360FC01BD
:10003000208384E290E024E230E0F90120812C6307
:10004000FC0120830E942D0080E690E00E94D405F0
:1000500086E690E00E94D405FBCFCF93DF93CDB727
:10006000DEB76C970FB6F894DEBF0FBECDBF80E051
:1000700090E0A0E7B1E489839A83AB83BC8320E05E
:1000800030E04AE755E469817A818B819C810E9446
:10009000B10BDC01CB018B8B9C8BAD8BBE8B20E03D
:1000A00030E040E85FE36B897C898D899E890E94FE
:1000B0009E0A88232CF481E090E0988F8F8B3FC0BC
:1000C00020E03FEF4FE757E46B897C898D899E895B
:1000D0000E94AD0B18164CF520E030E040E251E4F0
:1000E00069817A818B819C810E94B10BDC01CB01FB
:1000F000BC01CD010E940B0BDC01CB01988F8F8BD3
:100100000FC080E991E09A8F898F898D9A8D019730
:10011000F1F79A8F898F8F89988D0197988F8F8BA0
:100120008F89988D892B69F714C06B897C898D899B
:100130009E890E940B0BDC01CB01988F8F8B8F89DE
:10014000988D9C8F8B8F8B8D9C8D0197F1F79C8F59
:100150008B8F88E20E94A0018CE00E94A00186E0C3
:100160000E94A00181E00E94A00180E090E0A0E058
:10017000B0E48D839E83AF83B88720E030E04AE708
:1001800055E46D817E818F8198850E94B10BDC01E1
:10019000CB0189879A87AB87BC8720E030E040E8B5
:1001A0005FE369857A858B859C850E949E0A8823FA
:1001B0002CF481E090E09E878D873FC020E03FEFE8
:1001C0004FE757E469857A858B859C850E94AD0B46
:1001D00018164CF520E030E040E251E46D817E815C
:1001E0008F8198850E94B10BDC01CB01BC01CD0150
:1001F0000E940B0BDC01CB019E878D870FC080E92D
:1002000091E0988B8F878F8598890197F1F7988B6C
:100210008F878D859E8501979E878D878D859E858D
:10022000892B69F714C069857A858B859C850E9426
:100230000B0BDC01CB019E878D878D859E859A8B6C
:10024000898B89899A890197F1F79A8B898B0000AC
:100250006C960FB6F894DEBF0FBECDBFDF91CF9185
:100260000895CF93DF931F92CDB7DEB7898389813D
:10027000882F90E080719927892B51F085E290E0DA
:1002800025E230E0F90120812460FC01208309C0CF
:1002900085E290E025E230E0F90120812B7FFC012E
:1002A00020838981882F90E080729927892B51F0D3
:1002B00085E290E025E230E0F90120812860FC0130
:1002C000208309C085E290E025E230E0F901208139
:1002D000277FFC0120838981882F90E080749927F3
:1002E000892B51F085E290E025E230E0F901208190
:1002F0002061FC01208309C085E290E025E230E026
:10030000F90120812F7EFC0120838981882354F408
:1003100085E290E025E230E0F90120812062FC01D5
:10032000208309C085E290E025E230E0F9012081D8
:100330002F7DFC01208300000F90DF91CF91089565
:100340000F931F93CF93DF93CDB7DEB7C555D10978
:100350000FB6F894DEBF0FBECDBF9E012B5A3F4FA4
:10036000F9018083CE018B5A9F4FFC018081807FF1
:100370000E94310185E290E025E230E0F901208120
:100380002E7FFC01208380E090E0A8ECB2E489831A
:100390009A83AB83BC838E01055B1F4F20E030E066
:1003A0004AE755E469817A818B819C810E94B10B77
:1003B000DC01CB01F80180839183A283B383CE015A
:1003C000855B9F4F20E030E040E85FE3FC01608107
:1003D0007181828193810E949E0A88234CF4CE0110
:1003E000815B9F4F21E030E0FC013183208369C0B5
:1003F000CE01855B9F4F20E03FEF4FE757E4FC01C4
:1004000060817181828193810E94AD0B18160CF07E
:1004100046C020E030E040E251E469817A818B817E
:100420009C810E94B10BDC01CB018E01015B1F4F4F
:10043000BC01CD010E940B0BDC01CB01F8019183C3
:10044000808324C0CE018F5A9F4F20E931E0FC0108
:1004500031832083CE018F5A9F4FFC01808191818F
:100460000197F1F79E012F5A3F4FF9019183808345
:10047000CE01815B9F4F9E01215B3F4FF90120819F
:10048000318121503109FC0131832083CE01815B10
:100490009F4FFC0180819181892BA1F62CC08E0198
:1004A000015B1F4FCE01855B9F4FFC016081718115
:1004B000828193810E940B0BDC01CB01F8019183B7
:1004C0008083CE018D5A9F4F9E01215B3F4FF901E2
:1004D00020813181FC0131832083CE018D5A9F4FD1
:1004E000FC01808191810197F1F79E012D5A3F4FC8
:1004F000F9019183808385E290E025E230E0F90103
:1005000020812260FC01208380E090E0A8ECB2E42E
:100510008D839E83AF83B8878E010F5B1F4F20E0D2
:1005200030E04AE755E46D817E818F8198850E9495
:10053000B10BDC01CB01F80180839183A283B383EB
:10054000CE018F5B9F4F20E030E040E85FE3FC018D
:1005500060817181828193810E949E0A88234CF47C
:10056000CE018B5B9F4F21E030E0FC013183208383
:1005700069C0CE018F5B9F4F20E03FEF4FE757E40C
:10058000FC0160817181828193810E94AD0B1816FC
:100590000CF046C020E030E040E251E46D817E8105
:1005A0008F8198850E94B10BDC01CB018E010B5B22
:1005B0001F4FBC01CD010E940B0BDC01CB01F801E8
:1005C0009183808324C0CE01895B9F4F20E931E075
:1005D000FC0131832083CE01895B9F4FFC01808128
:1005E00091810197F1F79E01295B3F4FF9019183BA
:1005F0008083CE018B5B9F4F9E012B5B3F4FF901A8
:100600002081318121503109FC0131832083CE01C9
:100610008B5B9F4FFC0180819181892BA1F62CC0BF
:100620008E010B5B1F4FCE018F5B9F4FFC016081E2
:100630007181828193810E940B0BDC01CB01F80157
:1006400091838083CE01875B9F4F9E012B5B3F4F41
:10065000F90120813181FC0131832083CE01875B48
:100660009F4FFC01808191810197F1F79E01275BEB
:100670003F4FF9019183808385E290E025E230E0ED
:10068000F90120812D7FFC01208380E090E0A0E033
:10069000B0E489879A87AB87BC8720E030E04AE7DF
:1006A00055E469857A858B859C850E94B10BDC01B8
:1006B000CB018FAB98AFA9AFBAAF20E030E040E8F4
:1006C0005FE36FA978AD89AD9AAD0E949E0A882339
:1006D0002CF481E090E09CAF8BAF3FC020E03FEF77
:1006E0004FE757E46FA978AD89AD9AAD0E94AD0B85
:1006F00018164CF520E030E040E251E469857A8537
:100700008B859C850E94B10BDC01CB01BC01CD0126
:100710000E940B0BDC01CB019CAF8BAF0FC080E9BB
:1007200091E09EAF8DAF8DAD9EAD0197F1F79EAF7D
:100730008DAF8BAD9CAD01979CAF8BAF8BAD9CAD5E
:10074000892B69F71EC06FA978AD89AD9AAD0E945B
:100750000B0BDC01CB019CAF8BAF2BAD3CADCE01C5
:10076000CF96FC0131832083CE01CF96FC0180819E
:1007700091810197F1F79E01215C3F4FF90191832F
:100780008083CE018B5A9F4FFC0180818295807FB0
:100790000E94310185E290E025E230E0F9012081FC
:1007A0002E7FFC01208380E090E0A8ECB2E48D87EE
:1007B0009E87AF87B88B20E030E04AE755E46D852F
:1007C0007E858F8598890E94B10BDC01CB018DA7B6
:1007D0009EA7AFA7B8AB20E030E040E85FE36DA58F
:1007E0007EA58FA598A90E949E0A88232CF481E0FB
:1007F00090E09AAB89AB3FC020E03FEF4FE757E472
:100800006DA57EA58FA598A90E94AD0B18164CF575
:1008100020E030E040E251E46D857E858F85988947
:100820000E94B10BDC01CB01BC01CD010E940B0B7E
:10083000DC01CB019AAB89AB0FC080E991E09CABA6
:100840008BAB8BA99CA90197F1F79CAB8BAB89A9CA
:100850009AA901979AAB89AB89A99AA9892B69F7BB
:1008600014C06DA57EA58FA598A90E940B0BDC0175
:10087000CB019AAB89AB89A99AA99EAB8DAB8DA907
:100880009EA90197F1F79EAB8DAB85E290E025E242
:1008900030E0F90120812260FC01208380E090E0BB
:1008A000A8ECB2E4898B9A8BAB8BBC8B20E030E058
:1008B0004AE755E469897A898B899C890E94B10B42
:1008C000DC01CB018BA39CA3ADA3BEA320E030E051
:1008D00040E85FE36BA17CA18DA19EA10E949E0ACE
:1008E00088232CF481E090E098A78FA33FC020E0FC
:1008F0003FEF4FE757E46BA17CA18DA19EA10E9421
:10090000AD0B18164CF520E030E040E251E4698967
:100910007A898B899C890E94B10BDC01CB01BC01D7
:10092000CD010E940B0BDC01CB0198A78FA30FC058
:1009300080E991E09AA789A789A59AA50197F1F77F
:100940009AA789A78FA198A5019798A78FA38FA190
:1009500098A5892B69F714C06BA17CA18DA19EA1DC
:100960000E940B0BDC01CB0198A78FA38FA198A548
:100970009CA78BA78BA59CA50197F1F79CA78BA79C
:1009800085E290E025E230E0F90120812D7FFC0135
:10099000208380E090E0A0E0B0E48D8B9E8BAF8B55
:1009A000B88F20E030E04AE755E46D897E898F8971
:1009B000988D0E94B10BDC01CB01898F9A8FAB8F90
:1009C000BC8F20E030E040E85FE3698D7A8D8B8D4D
:1009D0009C8D0E949E0A88232CF481E090E09E8FDB
:1009E0008D8F3FC020E03FEF4FE757E4698D7A8D50
:1009F0008B8D9C8D0E94AD0B18164CF520E030E0DD
:100A000040E251E46D897E898F89988D0E94B10BF7
:100A1000DC01CB01BC01CD010E940B0BDC01CB0141
:100A20009E8F8D8F0FC080E991E098A38F8F8F8D5F
:100A300098A10197F1F798A38F8F8D8D9E8D0197C7
:100A40009E8F8D8F8D8D9E8D892B69F714C0698D3A
:100A50007A8D8B8D9C8D0E940B0BDC01CB019E8FC0
:100A60008D8F8D8D9E8D9AA389A389A19AA10197BF
:100A7000F1F79AA389A30000CB5ADF4F0FB6F89481
:100A8000DEBF0FBECDBFDF91CF911F910F910895B3
:100A9000CF93DF93CDB7DEB72E970FB6F894DEBFB6
:100AA0000FBECDBF81E00E94A00180E090E0A0E0F9
:100AB000B0E489839A83AB83BC8320E030E04AE7CB
:100AC00055E469817A818B819C810E94B10BDC01A4
:100AD000CB018D839E83AF83B88720E030E040E870
:100AE0005FE36D817E818F8198850E949E0A8823B5
:100AF0002CF481E090E09A8789873FC020E03FEFA7
:100B00004FE757E46D817E818F8198850E94AD0B00
:100B100018164CF520E030E040E251E469817A811A
:100B20008B819C810E94B10BDC01CB01BC01CD010A
:100B30000E940B0BDC01CB019A8789870FC080E9EB
:100B400091E09C878B878B859C850197F1F79C872B
:100B50008B8789859A8501979A87898789859A8560
:100B6000892B69F714C06D817E818F8198850E94E1
:100B70000B0BDC01CB019A87898789859A859E8733
:100B80008D878D859E850197F1F79E878D8780E8FB
:100B90000E94A00100002E960FB6F894DEBF0FBE93
:100BA000CDBFDF91CF9108950F931F93CF93DF9324
:100BB000CDB7DEB7CA56D1090FB6F894DEBF0FBE67
:100BC000CDBF9E0127593F4FF901918380831A823F
:100BD000198298C489819A819E0127593F4FF90152
:100BE00020813181820F931FFC018081807F0E94D0
:100BF000310185E290E025E230E0F90120812160B9
:100C0000FC01208380E090E0A0EAB0E48B839C8329
:100C1000AD83BE838E01015A1F4F20E030E04AE7CA
:100C200055E46B817C818D819E810E94B10BDC013A
:100C3000CB01F80180839183A283B383CE01815AD3
:100C40009F4F20E030E040E85FE3FC01608171816C
:100C5000828193810E949E0A88234CF4CE018D5993
:100C60009F4F21E030E0FC013183208369C0CE0139
:100C7000815A9F4F20E03FEF4FE757E4FC0160812E
:100C80007181828193810E94AD0B18160CF046C0D1
:100C900020E030E040E251E46B817C818D819E81D7
:100CA0000E94B10BDC01CB018E010D591F4FBC011D
:100CB000CD010E940B0BDC01CB01F80191838083F5
:100CC00024C0CE018B599F4F20E931E0FC013183D4
:100CD0002083CE018B599F4FFC0180819181019728
:100CE000F1F79E012B593F4FF90191838083CE018B
:100CF0008D599F4F9E012D593F4FF9012081318120
:100D000021503109FC0131832083CE018D599F4F41
:100D1000FC0180819181892BA1F62CC08E010D5997
:100D20001F4FCE01815A9F4FFC01608171818281EA
:100D300093810E940B0BDC01CB01F801918380832E
:100D4000CE0189599F4F9E012D593F4FF9012081B6
:100D50003181FC0131832083CE0189599F4FFC01F1
:100D6000808191810197F1F79E0129593F4FF90147
:100D70009183808385E290E025E230E0F9012081D3
:100D80002260FC01208380E090E0A0EAB0E48F8341
:100D90009887A987BA878E010B5A1F4F20E030E051
:100DA0004AE755E46F81788589859A850E94B10B61
:100DB000DC01CB01F80180839183A283B383CE0150
:100DC0008B5A9F4F20E030E040E85FE3FC016081F8
:100DD0007181828193810E949E0A88234CF4CE0106
:100DE000875A9F4F21E030E0FC013183208369C0A6
:100DF000CE018B5A9F4F20E03FEF4FE757E4FC01B5
:100E000060817181828193810E94AD0B18160CF074
:100E100046C020E030E040E251E46F81788589856A
:100E20009A850E94B10BDC01CB018E01075A1F4F3E
:100E3000BC01CD010E940B0BDC01CB01F8019183B9
:100E4000808324C0CE01855A9F4F20E931E0FC0108
:100E500031832083CE01855A9F4FFC01808191818F
:100E60000197F1F79E01255A3F4FF9019183808345
:100E7000CE01875A9F4F9E01275A3F4FF90120818B
:100E8000318121503109FC0131832083CE01875A01
:100E90009F4FFC0180819181892BA1F62CC08E018E
:100EA000075A1F4FCE018B5A9F4FFC016081718101
:100EB000828193810E940B0BDC01CB01F8019183AD
:100EC0008083CE01835A9F4F9E01275A3F4FF901DD
:100ED00020813181FC0131832083CE01835A9F4FD1
:100EE000FC01808191810197F1F79E01235A3F4FC8
:100EF000F9019183808385E290E025E230E0F901F9
:100F000020812D7FFC01208380E090E0A8E4B3E401
:100F10008B879C87AD87BE872BEA3AEA4AEA50E482
:100F20006B857C858D859E850E94B10BDC01CB0194
:100F300089AF9AAFABAFBCAF20E030E040E850E4FF
:100F40006B857C858D859E850E94B10BDC01CB0174
:100F50009E01235C3F4FF90180839183A283B38379
:100F600020E030E040E85FE369AD7AAD8BAD9CAD49
:100F70000E949E0A88233CF4CE018F5B9F4F21E0A4
:100F8000FC01208322C120E03FEF4FE757E4CE0170
:100F9000CD96FC0160817181828193810E94AD0BAD
:100FA00018160CF0CDC020E030E04AE754E46B8521
:100FB0007C858D859E850E94A20ADC01CB019E0165
:100FC0002E5B3F4FF90180839183A283B3838E010F
:100FD0000A5B1F4FCE018E5B9F4F20E030E04AE757
:100FE00055E4FC0160817181828193810E94B10B83
:100FF000DC01CB01F80180839183A283B383CE010E
:101000008A5B9F4F20E030E040E85FE3FC016081B5
:101010007181828193810E949E0A88234CF4CE01C3
:10102000865B9F4F21E030E0FC01318320836DC05F
:10103000CE018A5B9F4F20E03FEF4FE757E4FC0172
:1010400060817181828193810E94AD0B18160CF032
:101050004AC0CE018E5B9F4F20E030E040E251E479
:10106000FC0160817181828193810E94B10BDC015E
:10107000CB018E01065B1F4FBC01CD010E940B0B03
:10108000DC01CB01F8019183808324C0CE01845B15
:101090009F4F20E931E0FC0131832083CE01845B46
:1010A0009F4FFC01808191810197F1F79E01245BA4
:1010B0003F4FF90191838083CE01865B9F4F9E0154
:1010C000265B3F4FF9012081318121503109FC011C
:1010D00031832083CE01865B9F4FFC01808191810B
:1010E000892BA1F672C08E01065B1F4FCE018A5B71
:1010F0009F4FFC0160817181828193810E940B0B63
:10110000DC01CB01F80191838083CE01825B9F4F8C
:101110009E01265B3F4FF90120813181FC01318323
:101120002083CE01825B9F4FFC01808191810197DA
:10113000F1F79E01225B3F4FF9019183808345C007
:1011400020E030E04FE753E469AD7AAD8BAD9CAD64
:101150000E94AD0B181664F58E01005B1F4FCE0187
:10116000CD96FC0160817181828193810E940B0B7D
:10117000DC01CB01F80191838083CE018E5A9F4F11
:101180009E01205B3F4FF90120813181FC013183B9
:101190002083CE018E5A9F4FFC018081918101975F
:1011A000F1F79E012E5A3F4FF9019183808324C0AD
:1011B0008E010F5B1F4F69AD7AAD8BAD9CAD0E9468
:1011C0000B0BDC01CB01F8018083CE018C5A9F4FC1
:1011D0009E012F5B3F4FF9012081FC012083CE014E
:1011E0008C5A9F4FFC018081282F2A95F1F7CE0160
:1011F0008C5A9F4FFC01208389819A819E01275937
:101200003F4FF90120813181820F931FFC018081C2
:101210008295807F0E94310185E290E025E230E0F6
:10122000F90120812160FC01208380E090E0A0EAA8
:10123000B0E48F87988BA98BBA8B20E030E04AE727
:1012400055E46F85788989899A890E94B10BDC0100
:10125000CB018FA798ABA9ABBAAB20E030E040E858
:101260005FE36FA578A989A99AA90E949E0A88239D
:101270002CF481E090E09CAB8BAB3FC020E03FEFD3
:101280004FE757E46FA578A989A99AA90E94AD0BE9
:1012900018164CF520E030E040E251E46F85788983
:1012A00089899A890E94B10BDC01CB01BC01CD0177
:1012B0000E940B0BDC01CB019CAB8BAB0FC080E918
:1012C00091E09EAB8DAB8DA99EA90197F1F79EABE6
:1012D0008DAB8BA99CA901979CAB8BAB8BA99CA9CF
:1012E000892B69F714C06FA578A989A99AA90E94CA
:1012F0000B0BDC01CB019CAB8BAB8BA99CA998AFF2
:101300008FAB8FA998AD0197F1F798AF8FAB85E2BE
:1013100090E025E230E0F90120812260FC01208389
:1013200080E090E0A0EAB0E48B8B9C8BAD8BBE8B11
:1013300020E030E04AE755E46B897C898D899E89FD
:101340000E94B10BDC01CB018DA39EA3AFA3B8A774
:1013500020E030E040E85FE36DA17EA18FA198A579
:101360000E949E0A88232CF481E090E09AA789A726
:101370003FC020E03FEF4FE757E46DA17EA18FA172
:1013800098A50E94AD0B18164CF520E030E040E225
:1013900051E46B897C898D899E890E94B10BDC01A7
:1013A000CB01BC01CD010E940B0BDC01CB019AA744
:1013B00089A70FC080E991E09CA78BA78BA59CA56E
:1013C0000197F1F79CA78BA789A59AA501979AA7E2
:1013D00089A789A59AA5892B69F714C06DA17EA15B
:1013E0008FA198A50E940B0BDC01CB019AA789A7BE
:1013F00089A59AA59EA78DA78DA59EA50197F1F712
:101400009EA78DA785E290E025E230E0F9012081DA
:101410002D7FFC01208380E090E0A0E0B0E48F8B82
:10142000988FA98FBA8F20E030E04AE755E46F89A2
:10143000788D898D9A8D0E94B10BDC01CB018B8F49
:101440009C8FAD8FBE8F20E030E040E85FE36B8D76
:101450007C8D8D8D9E8D0E949E0A88232CF481E0C8
:1014600090E098A38F8F3FC020E03FEF4FE757E415
:101470006B8D7C8D8D8D9E8D0E94AD0B18164CF55D
:1014800020E030E040E251E46F89788D898D9A8DBB
:101490000E94B10BDC01CB01BC01CD010E940B0B02
:1014A000DC01CB0198A38F8F0FC080E991E09AA354
:1014B00089A389A19AA10197F1F79AA389A38F8D96
:1014C00098A1019798A38F8F8F8D98A1892B69F789
:1014D00014C06B8D7C8D8D8D9E8D0E940B0BDC015D
:1014E000CB0198A38F8F8F8D98A19CA38BA38BA1E9
:1014F0009CA10197F1F79CA38BA389819A81019606
:101500009A83898389819A819E0127593F4FF901E6
:1015100020813181820F931FFC018081882309F093
:1015200059CB0000C659DF4F0FB6F894DEBF0FBE8F
:10153000CDBFDF91CF911F910F91089598D008F4FE
:1015400081E008950CD0CEC0C6D040F0BDD030F0C0
:1015500021F45F3F19F0AFC05111F8C0B2C0D3D031
:1015600098F39923C9F35523B1F3951B550BBB276A
:10157000AA2762177307840738F09F5F5F4F220F17
:10158000331F441FAA1FA9F334D00E2E3AF0E0E80F
:1015900031D091505040E695001CCAF72AD0FE2F5A
:1015A00028D0660F771F881FBB1F261737074807ED
:1015B000AB07B0E809F0BB0B802D6E2F7F2FFF2704
:1015C00093585F4F2AF09E3F510568F074C0BEC02B
:1015D0005F3FECF3983EDCF3869577956795B7957A
:1015E000F7959F5FC9F7880F911D9695879597F995
:1015F0000895E1E0660F771F881FBB1F621773070E
:101600008407BA0720F0621B730B840BBA0BEE1F22
:1016100088F7E09508957FD088F09F5790F0B92F14
:101620009927B751A0F0D1F0660F771F881F991F37
:101630001AF0BA95C9F712C0B13081F086D0B1E086
:10164000089583C0672F782F8827B85F39F0B93F96
:10165000CCF3869577956795B395D9F73EF4909539
:101660008095709561957F4F8F4F9F4F0895990F8B
:101670000008550FAA0BE0E8FEEF16161706E8075C
:10168000F907C0F012161306E407F50798F0621B7D
:10169000730B840B950B39F40A2661F0232B242B52
:1016A000252B21F408950A2609F4A140A6958FEF71
:1016B000811D811D089597F99F6780E870E060E0C3
:1016C00008959FEF80EC089500240A9416161706DB
:1016D00018060906089500240A9412161306140623
:1016E00005060895092E0394000C11F4882352F086
:1016F000BB0F40F4BF2B11F460FF04C06F5F7F4F3E
:101700008F4F9F4F089557FD9058440F551F59F024
:101710005F3F71F04795880F97FB991F61F09F3FDE
:1017200079F087950895121613061406551FF2CF07
:101730004695F1DF08C0161617061806991FF1CF57
:1017400086957105610508940895E894BB2766277E
:101750007727862F972F97F9089589DF08F48FEF61
:1017600008950AD0BFCFB0DF28F0B5DF18F0952379
:1017700009F0A1CFA6CFEACFC6DFA8F39923D9F30A
:101780005523C9F3950F50E0551FAA27EE27FF27D1
:10179000BB2700240894679520F4E20FF31FB41FC1
:1017A0000A1E220F331F441FAA1F6695A9F77795BB
:1017B00030F4F30FB41F0A1E121E08F46395330FA2
:1017C000441FAA1F221F769599F7879520F4B40F1E
:1017D0000A1E121E631F440FAA1F221F331F869565
:1017E000A9F7862F712D602D11249F5750408AF044
:1017F000E1F088234AF0EE0FFF1FBB1F661F771F23
:10180000881F91505040A9F79E3F510570F053CF6B
:101810009DCF5F3FECF3983EDCF386957795679517
:10182000B795F795E7959F5FC1F7FE2B880F911D40
:081830009695879597F908953C
:1018380048656C6C6F0034626974204C4344000046
:00000001FF
