:1000000010E0A0E6B0E0EAE8F6E103C0C89531965A
:100010000D92A636B107D1F7CF93DF93CDB7DEB7F8
:100020000E94170080E690E00E948B05FFCFCF93DF
:10003000DF93CDB7DEB76C970FB6F894DEBF0FBE77
:10004000CDBF8AE290E02FEFFC01208380E090E0BA
:10005000A0E7B1E489839A83AB83BC8320E030E0DE
:100060004AE755E469817A818B819C810E94DA0A92
:10007000DC01CB018B8B9C8BAD8BBE8B20E030E009
:1000800040E85FE36B897C898D899E890E94C7095E
:1000900088232CF481E090E0988F8F8B3FC020E084
:1000A0003FEF4FE757E46B897C898D899E890E94D9
:1000B000D60A18164CF520E030E040E251E46981A0
:1000C0007A818B819C810E94DA0ADC01CB01BC0120
:1000D000CD010E94340ADC01CB01988F8F8B0FC0B9
:1000E00080E991E09A8F898F898D9A8D0197F1F738
:1000F0009A8F898F8F89988D0197988F8F8B8F8991
:10010000988D892B69F714C06B897C898D899E89AC
:100110000E94340ADC01CB01988F8F8B8F89988DD8
:100120009C8F8B8F8B8D9C8D0197F1F79C8F8B8F84
:1001300082E00E94230188E20E9423018CE00E9459
:10014000230186E00E94230181E00E94230180E0D8
:1001500090E0A0E0B0E48D839E83AF83B88720E079
:1001600030E04AE755E46D817E818F8198850E9459
:10017000DA0ADC01CB0189879A87AB87BC8720E04C
:1001800030E040E85FE369857A858B859C850E9435
:10019000C70988232CF481E090E09E878D873FC0BB
:1001A00020E03FEF4FE757E469857A858B859C8592
:1001B0000E94D60A18164CF520E030E040E251E4E7
:1001C0006D817E818F8198850E94DA0ADC01CB01E6
:1001D000BC01CD010E94340ADC01CB019E878D87D2
:1001E0000FC080E991E0988B8F878F859889019760
:1001F000F1F7988B8F878D859E8501979E878D87D8
:100200008D859E85892B69F714C069857A858B85D4
:100210009C850E94340ADC01CB019E878D878D85E9
:100220009E859A8B898B89899A890197F1F79A8B98
:10023000898B00006C960FB6F894DEBF0FBECDBF61
:10024000DF91CF9108950F931F93CF93DF93CDB795
:10025000DEB7CD55D1090FB6F894DEBF0FBECDBFC6
:100260009E01235A3F4FF90180838BE290E02BE2FD
:1002700030E0F9012081422F4F709E01235A3F4FF9
:10028000F9012081207F242BFC0120838BE290E068
:100290002BE230E0F90120812E7FFC0120838BE2EC
:1002A00090E02BE230E0F90120812260FC01208304
:1002B00080E090E0A8E4B3E489839A83AB83BC83B5
:1002C0008E010F5B1F4F2BEA3AEA4AEA50E469813C
:1002D0007A818B819C810E94DA0ADC01CB01F801D2
:1002E00080839183A283B3838E010B5B1F4F20E039
:1002F00030E040E850E469817A818B819C810E94E2
:10030000DA0ADC01CB01F80180839183A283B383F5
:10031000CE018F5B9F4F20E030E040E85FE3FC01BF
:1003200060817181828193810E94C70988233CF496
:10033000CE01875B9F4F21E0FC0120832CC1CE01C1
:100340008B5B9F4F20E03FEF4FE757E4FC0160815C
:100350007181828193810E94D60A18160CF0CDC05B
:1003600020E030E04AE754E469817A818B819C8106
:100370000E94CB09DC01CB019E01265B3F4FF901B6
:1003800080839183A283B3838E01025B1F4FCE01D2
:10039000865B9F4F20E030E04AE755E4FC01608136
:1003A0007181828193810E94DA0ADC01CB01F8011C
:1003B00080839183A283B383CE01825B9F4F20E031
:1003C00030E040E85FE3FC016081718182819381CC
:1003D0000E94C70988234CF4CE018E5A9F4F21E01A
:1003E00030E0FC01318320836DC0CE01825B9F4FE2
:1003F00020E03FEF4FE757E4FC016081718182818B
:1004000093810E94D60A18160CF04AC0CE01865B72
:100410009F4F20E030E040E251E4FC0160817181B7
:10042000828193810E94DA0ADC01CB018E010E5A8F
:100430001F4FBC01CD010E94340ADC01CB01F80141
:100440009183808324C0CE018C5A9F4F20E931E0F4
:10045000FC0131832083CE018C5A9F4FFC018081A7
:1004600091810197F1F79E012C5A3F4FF901918339
:100470008083CE018E5A9F4F9E012E5A3F4FF90125
:100480002081318121503109FC0131832083CE014B
:100490008E5A9F4FFC0180819181892BA1F67BC0F0
:1004A0008E010E5A1F4FCE01825B9F4FFC0160816F
:1004B0007181828193810E94340ADC01CB01F801B1
:1004C00091838083CE018A5A9F4F9E012E5A3F4FBF
:1004D000F90120813181FC0131832083CE018A5AC8
:1004E0009F4FFC01808191810197F1F79E012A5A6B
:1004F0003F4FF901918380834EC0CE018F5B9F4FA8
:1005000020E030E04FE753E4FC016081718182819B
:1005100093810E94D60A18166CF58E01085A1F4F57
:10052000CE018B5B9F4FFC01608171818281938141
:100530000E94340ADC01CB01F80191838083CE0153
:10054000865A9F4F9E01285A3F4FF90120813181E1
:10055000FC0131832083CE01865A9F4FFC018081AC
:1005600091810197F1F79E01265A3F4FF90191833E
:10057000808328C08E01075B1F4FCE018F5B9F4F8A
:10058000FC0160817181828193810E94340ADC01C7
:10059000CB01F8018083CE01845A9F4F9E01275BD7
:1005A0003F4FF9012081FC012083CE01845A9F4FE7
:1005B000FC018081282F2A95F1F7CE01845A9F4FA4
:1005C000FC0120838BE290E02BE230E0F9012081F6
:1005D0002D7FFC01208380E090E0A0E0B0E48D83DB
:1005E0009E83AF83B88720E030E04AE755E46D8111
:1005F0007E818F8198850E94DA0ADC01CB018FAB66
:1006000098AFA9AFBAAF20E030E040E85FE36FA950
:1006100078AD89AD9AAD0E94C70988232CF481E09A
:1006200090E09CAF8BAF3FC020E03FEF4FE757E437
:100630006FA978AD89AD9AAD0E94D60A18164CF50F
:1006400020E030E040E251E46D817E818F81988529
:100650000E94DA0ADC01CB01BC01CD010E94340A00
:10066000DC01CB019CAF8BAF0FC080E991E09EAF66
:100670008DAF8DAD9EAD0197F1F79EAF8DAF8BAD78
:100680009CAD01979CAF8BAF8BAD9CAD892B69F76F
:100690001EC06FA978AD89AD9AAD0E94340ADC0105
:1006A000CB019CAF8BAF2BAD3CADCE01CF96FC0107
:1006B00031832083CE01CF96FC0180819181019707
:1006C000F1F79E01215C3F4FF901918380838BE21A
:1006D00090E02BE230E0F9012081422F4F709E0123
:1006E000235A3F4FF9012081222F30E02295329585
:1006F000307F3227207F3227242BFC0120838BE29E
:1007000090E02BE230E0F90120812260FC0120839F
:1007100080E090E0A8E4B3E489879A87AB87BC8740
:100720002BEA3AEA4AEA50E469857A858B859C850A
:100730000E94DA0ADC01CB018B8F9C8FAD8FBE8FBC
:1007400020E030E040E850E469857A858B859C851F
:100750000E94DA0ADC01CB018F8F98A3A9A3BAA368
:1007600020E030E040E85FE36B8D7C8D8D8D9E8DC9
:100770000E94C70988231CF481E08BA3B2C020E04B
:100780003FEF4FE757E46F8D78A189A19AA10E94AE
:10079000D60A18160CF07BC020E030E04AE754E49B
:1007A00069857A858B859C850E94CB09DC01CB010C
:1007B0008CA39DA3AEA3BFA320E030E04AE755E49D
:1007C0006CA17DA18EA19FA10E94DA0ADC01CB0160
:1007D00088A799A7AAA7BBA720E030E040E85FE37D
:1007E00068A579A58AA59BA50E94C70988232CF432
:1007F00081E090E09DA78CA73FC020E03FEF4FE74E
:1008000057E468A579A58AA59BA50E94D60A181663
:100810004CF520E030E040E251E46CA17DA18EA1D6
:100820009FA10E94DA0ADC01CB01BC01CD010E942C
:10083000340ADC01CB019DA78CA70FC080E991E0B1
:100840009FA78EA78EA59FA50197F1F79FA78EA7BB
:100850008CA59DA501979DA78CA78CA59DA5892BEF
:1008600069F73FC068A579A58AA59BA50E94340AAF
:10087000DC01CB019DA78CA78CA59DA599AB88AB6E
:1008800088A999A90197F1F799AB88AB2AC020E014
:1008900030E04FE753E46B8D7C8D8D8D9E8D0E94F3
:1008A000D60A1816ACF46F8D78A189A19AA10E947E
:1008B000340ADC01CB019BAB8AAB8AA99BA99DAB17
:1008C0008CAB8CA99DA90197F1F79DAB8CAB0FC0A8
:1008D0006B8D7C8D8D8D9E8D0E94340ADC01CB0149
:1008E0008BA38BA18EAB8EA98A95F1F78EAB8BE291
:1008F00090E02BE230E0F90120812D7FFC01208384
:1009000080E090E0A0E0B0E48D879E87AF87B88B51
:1009100020E030E04AE755E46D857E858F85988933
:100920000E94DA0ADC01CB01898B9A8BAB8BBC8BE2
:1009300020E030E040E85FE369897A898B899C890F
:100940000E94C70988232CF481E090E09E8B8D8B58
:100950003FC020E03FEF4FE757E469897A898B89F0
:100960009C890E94D60A18164CF520E030E040E23F
:1009700051E46D857E858F8598890E94DA0ADC01B5
:10098000CB01BC01CD010E94340ADC01CB019E8B5E
:100990008D8B0FC080E991E0988F8F8B8F89988D18
:1009A0000197F1F7988F8F8B8D899E8901979E8B88
:1009B0008D8B8D899E89892B69F714C069897A8905
:1009C0008B899C890E94340ADC01CB019E8B8D8B24
:1009D0008D899E899A8F898F898D9A8D0197F1F7DC
:1009E0009A8F898F0000C35ADF4F0FB6F894DEBF8D
:1009F0000FBECDBFDF91CF911F910F910895CF937F
:100A0000DF93CDB7DEB72E970FB6F894DEBF0FBEDB
:100A1000CDBF81E00E94230180E090E0A0E0B0E43F
:100A200089839A83AB83BC8320E030E04AE755E4B6
:100A300069817A818B819C810E94DA0ADC01CB0179
:100A40008D839E83AF83B88720E030E040E85FE38A
:100A50006D817E818F8198850E94C70988232CF43F
:100A600081E090E09A8789873FC020E03FEF4FE721
:100A700057E46D817E818F8198850E94D60A181671
:100A80004CF520E030E040E251E469817A818B81CD
:100A90009C810E94DA0ADC01CB01BC01CD010E94DD
:100AA000340ADC01CB019A8789870FC080E991E085
:100AB0009C878B878B859C850197F1F79C878B871B
:100AC00089859A8501979A87898789859A85892B4F
:100AD00069F714C06D817E818F8198850E94340AE8
:100AE000DC01CB019A87898789859A859E878D87C6
:100AF0008D859E850197F1F79E878D8780E80E94FE
:100B0000230100002E960FB6F894DEBF0FBECDBFB6
:100B1000DF91CF9108950F931F93CF93DF93CDB7BC
:100B2000DEB7C056D1090FB6F894DEBF0FBECDBFF9
:100B30009E01215A3F4FF901918380831A821982C5
:100B4000DDC38BE290E02BE230E0F9012081622FDF
:100B50006F7029813A81AE01415A5F4FFA0140819D
:100B60005181240F351FF9012081207F262BFC01A4
:100B700020838BE290E02BE230E0F90120812160BC
:100B8000FC0120838BE290E02BE230E0F901208130
:100B90002260FC01208380E090E0A0E8BFE38B832B
:100BA0009C83AD83BE838E010D5B1F4F2BEA3AEA17
:100BB0004AEA50E46B817C818D819E810E94DA0A31
:100BC000DC01CB01F80180839183A283B3838E0182
:100BD000095B1F4F20E030E040E850E46B817C81EE
:100BE0008D819E810E94DA0ADC01CB01F8018083AD
:100BF0009183A283B383CE018D5B9F4F20E030E0D1
:100C000040E85FE3FC0160817181828193810E94F1
:100C1000C70988233CF4CE01855B9F4F21E0FC018E
:100C200020832CC1CE01895B9F4F20E03FEF4FE72F
:100C300057E4FC0160817181828193810E94D60A10
:100C400018160CF0CDC020E030E04AE754E46B8188
:100C50007C818D819E810E94CB09DC01CB019E01AC
:100C6000245B3F4FF90180839183A283B3838E017C
:100C7000005B1F4FCE01845B9F4F20E030E04AE7CE
:100C800055E4FC0160817181828193810E94DA0ABE
:100C9000DC01CB01F80180839183A283B383CE0171
:100CA000805B9F4F20E030E040E85FE3FC01608123
:100CB0007181828193810E94C70988234CF4CE01FF
:100CC0008C5A9F4F21E030E0FC01318320836DC0BE
:100CD000CE01805B9F4F20E03FEF4FE757E4FC01E0
:100CE00060817181828193810E94D60A18160CF06E
:100CF0004AC0CE01845B9F4F20E030E040E251E4E7
:100D0000FC0160817181828193810E94DA0ADC0199
:100D1000CB018E010C5A1F4FBC01CD010E94340A39
:100D2000DC01CB01F8019183808324C0CE018A5A73
:100D30009F4F20E931E0FC0131832083CE018A5AA4
:100D40009F4FFC01808191810197F1F79E012A5A02
:100D50003F4FF90191838083CE018C5A9F4F9E01B2
:100D60002C5A3F4FF9012081318121503109FC017A
:100D700031832083CE018C5A9F4FFC018081918169
:100D8000892BA1F67BC08E010C5A1F4FCE01805BD0
:100D90009F4FFC0160817181828193810E94340A9E
:100DA000DC01CB01F80191838083CE01885A9F4FEB
:100DB0009E012C5A3F4FF90120813181FC01318382
:100DC0002083CE01885A9F4FFC0180819181019739
:100DD000F1F79E01285A3F4FF901918380834EC05D
:100DE000CE018D5B9F4F20E030E04FE753E4FC01E4
:100DF00060817181828193810E94D60A18166CF5F8
:100E00008E01065A1F4FCE01895B9F4FFC01608106
:100E10007181828193810E94340ADC01CB01F80147
:100E200091838083CE01845A9F4F9E01265A3F4F63
:100E3000F90120813181FC0131832083CE01845A64
:100E40009F4FFC01808191810197F1F79E01245A07
:100E50003F4FF9019183808328C08E01055B1F4FAE
:100E6000CE018D5B9F4FFC016081718182819381F6
:100E70000E94340ADC01CB01F8018083CE01825A42
:100E80009F4F9E01255B3F4FF9012081FC0120838C
:100E9000CE01825A9F4FFC018081282F2A95F1F7BD
:100EA000CE01825A9F4FFC0120838BE290E02BE21F
:100EB00030E0F90120812D7FFC01208380E090E06B
:100EC000A8E4B3E48F839887A987BA8720E030E04D
:100ED0004AE755E46F81788589859A850E94DA0A08
:100EE000DC01CB0189AF9AAFABAFBCAF20E030E003
:100EF00040E85FE369AD7AAD8BAD9CAD0E94C70958
:100F000088232CF481E090E09EAF8DAF49C020E0B3
:100F10003FEF4FE757E469AD7AAD8BAD9CAD0E94D2
:100F2000D60A18169CF520E030E040E251E46F81CB
:100F3000788589859A850E94DA0ADC01CB01BC019B
:100F4000CD010E94340ADC01CB019EAF8DAF19C0E8
:100F500020E931E0CE01CF96FC0131832083CE0120
:100F6000CF96FC01808191810197F1F79E01215C70
:100F70003F4FF901918380838DAD9EAD01979EAF68
:100F80008DAF8DAD9EAD892B19F720C069AD7AADBF
:100F90008BAD9CAD0E94340ADC01CB019EAF8DAFBE
:100FA000CE018F5B9F4F2DAD3EADFC013183208381
:100FB000CE018F5B9F4FFC01808191810197F1F7FA
:100FC0009E012F5B3F4FF901918380838BE290E07C
:100FD0002BE230E0F9012081622F6F7029813A8184
:100FE000AE01415A5F4FFA0140815181240F351FF4
:100FF000F9012081022E000C330B22953295307FAF
:101000003227207F3227262BFC0120838BE290E0C1
:101010002BE230E0F90120812260FC01208380E096
:1010200090E0A0E8BFE38B879C87AD87BE872BEA63
:101030003AEA4AEA50E46B857C858D859E850E945C
:10104000DA0ADC01CB018D8F9E8FAF8FB8A320E031
:1010500030E040E850E46B857C858D859E850E945C
:10106000DA0ADC01CB0189A39AA3ABA3BCA320E0DD
:1010700030E040E85FE36D8D7E8D8F8D98A10E94FA
:10108000C70988231CF481E08DA3B2C020E03FEFA4
:101090004FE757E469A17AA18BA19CA10E94D60ACF
:1010A00018160CF07BC020E030E04AE754E46B8572
:1010B0007C858D859E850E94CB09DC01CB018EA3AA
:1010C0009FA3A8A7B9A720E030E04AE755E46EA1A6
:1010D0007FA188A599A50E94DA0ADC01CB018AA725
:1010E0009BA7ACA7BDA720E030E040E85FE36AA57E
:1010F0007BA58CA59DA50E94C70988232CF481E0BF
:1011000090E09FA78EA73FC020E03FEF4FE757E456
:101110006AA57BA58CA59DA50E94D60A18164CF53C
:1011200020E030E040E251E46EA17FA188A599A5BE
:101130000E94DA0ADC01CB01BC01CD010E94340A15
:10114000DC01CB019FA78EA70FC080E991E099AB8E
:1011500088AB88A999A90197F1F799AB88AB8EA5BF
:101160009FA501979FA78EA78EA59FA5892B69F79D
:101170003FC06AA57BA58CA59DA50E94340ADC0111
:10118000CB019FA78EA78EA59FA59BAB8AAB8AA9F3
:101190009BA90197F1F79BAB8AAB2AC020E030E016
:1011A0004FE753E46D8D7E8D8F8D98A10E94D60AF6
:1011B0001816ACF469A17AA18BA19CA10E94340AF3
:1011C000DC01CB019DAB8CAB8CA99DA99FAB8EABF9
:1011D0008EA99FA90197F1F79FAB8EAB0FC06D8DC4
:1011E0007E8D8F8D98A10E94340ADC01CB018DA3E6
:1011F0008DA188AF88AD8A95F1F788AF8BE290E03A
:101200002BE230E0F90120812D7FFC01208380E07A
:1012100090E0A0E0B0E48F87988BA98BBA8B20E098
:1012200030E04AE755E46F85788989899A890E9478
:10123000DA0ADC01CB018B8B9C8BAD8BBE8B20E063
:1012400030E040E85FE36B897C898D899E890E944C
:10125000C70988232CF481E090E0988F8F8B3FC0E2
:1012600020E03FEF4FE757E46B897C898D899E89A9
:101270000E94D60A18164CF520E030E040E251E416
:101280006F85788989899A890E94DA0ADC01CB0105
:10129000BC01CD010E94340ADC01CB01988F8F8BF9
:1012A0000FC080E991E09A8F898F898D9A8D01977F
:1012B000F1F79A8F898F8F89988D0197988F8F8BEF
:1012C0008F89988D892B69F714C06B897C898D89EA
:1012D0009E890E94340ADC01CB01988F8F8B8F8905
:1012E000988D9C8F8B8F8B8D9C8D0197F1F79C8FA8
:1012F0008B8F89819A8101969A83898389819A81CA
:101300009E01215A3F4FF90120813181820F931FA5
:10131000FC018081882309F014CC0000C05ADF4F03
:101320000FB6F894DEBF0FBECDBFDF91CF911F91F6
:101330000F910895CF93DF9300D000D0CDB7DEB7E3
:1013400089836A835C834B838981882349F48A81FA
:10135000803130F48A818F7080680E9423010BC035
:101360008981813041F48A81803128F48A818F70AB
:10137000806C0E9423018B819C810E948B05000060
:101380000F900F900F900F90DF91CF91089598D00C
:1013900008F481E008950CD0CEC0C6D040F0BDD096
:1013A00030F021F45F3F19F0AFC05111F8C0B2C066
:1013B000D3D098F39923C9F35523B1F3951B550B5B
:1013C000BB27AA2762177307840738F09F5F5F4F18
:1013D000220F331F441FAA1FA9F334D00E2E3AF058
:1013E000E0E831D091505040E695001CCAF72AD071
:1013F000FE2F28D0660F771F881FBB1F26173707C1
:101400004807AB07B0E809F0BB0B802D6E2F7F2F8C
:10141000FF2793585F4F2AF09E3F510568F074C034
:10142000BEC05F3FECF3983EDCF3869577956795F9
:10143000B795F7959F5FC9F7880F911D969587958A
:1014400097F90895E1E0660F771F881FBB1F6217A9
:1014500073078407BA0720F0621B730B840BBA0B67
:10146000EE1F88F7E09508957FD088F09F5790F0A1
:10147000B92F9927B751A0F0D1F0660F771F881FB9
:10148000991F1AF0BA95C9F712C0B13081F086D011
:10149000B1E0089583C0672F782F8827B85F39F0AF
:1014A000B93FCCF3869577956795B395D9F73EF418
:1014B00090958095709561957F4F8F4F9F4F0895C0
:1014C000990F0008550FAA0BE0E8FEEF1616170655
:1014D000E807F907C0F012161306E407F50798F0BD
:1014E000621B730B840B950B39F40A2661F0232BD6
:1014F000242B252B21F408950A2609F4A140A69552
:101500008FEF811D811D089597F99F6780E870E036
:1015100060E008959FEF80EC089500240A94161669
:10152000170618060906089500240A9412161306D1
:10153000140605060895092E0394000C11F488235F
:1015400052F0BB0F40F4BF2B11F460FF04C06F5F7B
:101550007F4F8F4F9F4F089557FD9058440F551F51
:1015600059F05F3F71F04795880F97FB991F61F025
:101570009F3F79F087950895121613061406551F9C
:10158000F2CF4695F1DF08C0161617061806991F08
:10159000F1CF86957105610508940895E894BB27FD
:1015A00066277727862F972F97F9089589DF08F404
:1015B0008FEF08950AD0BFCFB0DF28F0B5DF18F065
:1015C000952309F0A1CFA6CFEACFC6DFA8F39923D0
:1015D000D9F35523C9F3950F50E0551FAA27EE27DD
:1015E000FF27BB2700240894679520F4E20FF31F20
:1015F000B41F0A1E220F331F441FAA1F6695A9F7A6
:10160000779530F4F30FB41F0A1E121E08F4639589
:10161000330F441FAA1F221F769599F7879520F450
:10162000B40F0A1E121E631F440FAA1F221F331F6E
:101630008695A9F7862F712D602D11249F57504054
:101640008AF0E1F088234AF0EE0FFF1FBB1F661FF0
:10165000771F881F91505040A9F79E3F510570F0A9
:1016600053CF9DCF5F3FECF3983EDCF386957795A3
:101670006795B795F795E7959F5FC1F7FE2B880FA4
:0A168000911D9695879597F908953E
:06168A0048454C4C4F00E6
:00000001FF
